{
  "_format": "hh-sol-artifact-1",
  "contractName": "LUSD",
  "sourceName": "contracts/lusd.sol",
  "abi": [
    {
      "inputs": [
        {
          "internalType": "uint256",
          "name": "initialSupply",
          "type": "uint256"
        }
      ],
      "stateMutability": "nonpayable",
      "type": "constructor"
    },
    {
      "anonymous": false,
      "inputs": [
        {
          "indexed": false,
          "internalType": "uint256",
          "name": "id",
          "type": "uint256"
        },
        {
          "indexed": true,
          "internalType": "address",
          "name": "from",
          "type": "address"
        },
        {
          "indexed": false,
          "internalType": "uint256",
          "name": "amount",
          "type": "uint256"
        }
      ],
      "name": "Accepted",
      "type": "event"
    },
    {
      "anonymous": false,
      "inputs": [
        {
          "indexed": true,
          "internalType": "address",
          "name": "owner",
          "type": "address"
        },
        {
          "indexed": true,
          "internalType": "address",
          "name": "spender",
          "type": "address"
        },
        {
          "indexed": false,
          "internalType": "uint256",
          "name": "value",
          "type": "uint256"
        }
      ],
      "name": "Approval",
      "type": "event"
    },
    {
      "anonymous": false,
      "inputs": [
        {
          "indexed": true,
          "internalType": "address",
          "name": "previousOwner",
          "type": "address"
        },
        {
          "indexed": true,
          "internalType": "address",
          "name": "newOwner",
          "type": "address"
        }
      ],
      "name": "OwnershipTransferred",
      "type": "event"
    },
    {
      "anonymous": false,
      "inputs": [
        {
          "indexed": false,
          "internalType": "uint256",
          "name": "id",
          "type": "uint256"
        },
        {
          "indexed": true,
          "internalType": "address",
          "name": "from",
          "type": "address"
        },
        {
          "indexed": false,
          "internalType": "uint256",
          "name": "amount",
          "type": "uint256"
        }
      ],
      "name": "Rejected",
      "type": "event"
    },
    {
      "anonymous": false,
      "inputs": [
        {
          "indexed": true,
          "internalType": "address",
          "name": "from",
          "type": "address"
        },
        {
          "indexed": true,
          "internalType": "address",
          "name": "to",
          "type": "address"
        },
        {
          "indexed": false,
          "internalType": "uint256",
          "name": "value",
          "type": "uint256"
        }
      ],
      "name": "Transfer",
      "type": "event"
    },
    {
      "anonymous": false,
      "inputs": [
        {
          "indexed": false,
          "internalType": "uint256",
          "name": "id",
          "type": "uint256"
        },
        {
          "indexed": true,
          "internalType": "address",
          "name": "from",
          "type": "address"
        },
        {
          "indexed": false,
          "internalType": "uint256",
          "name": "amount",
          "type": "uint256"
        }
      ],
      "name": "Withdraw",
      "type": "event"
    },
    {
      "inputs": [
        {
          "internalType": "uint256",
          "name": "id",
          "type": "uint256"
        }
      ],
      "name": "accept",
      "outputs": [],
      "stateMutability": "nonpayable",
      "type": "function"
    },
    {
      "inputs": [
        {
          "internalType": "address",
          "name": "owner",
          "type": "address"
        },
        {
          "internalType": "address",
          "name": "spender",
          "type": "address"
        }
      ],
      "name": "allowance",
      "outputs": [
        {
          "internalType": "uint256",
          "name": "",
          "type": "uint256"
        }
      ],
      "stateMutability": "view",
      "type": "function"
    },
    {
      "inputs": [
        {
          "internalType": "address",
          "name": "spender",
          "type": "address"
        },
        {
          "internalType": "uint256",
          "name": "amount",
          "type": "uint256"
        }
      ],
      "name": "approve",
      "outputs": [
        {
          "internalType": "bool",
          "name": "",
          "type": "bool"
        }
      ],
      "stateMutability": "nonpayable",
      "type": "function"
    },
    {
      "inputs": [
        {
          "internalType": "address",
          "name": "account",
          "type": "address"
        }
      ],
      "name": "balanceOf",
      "outputs": [
        {
          "internalType": "uint256",
          "name": "",
          "type": "uint256"
        }
      ],
      "stateMutability": "view",
      "type": "function"
    },
    {
      "inputs": [
        {
          "internalType": "address",
          "name": "account",
          "type": "address"
        },
        {
          "internalType": "uint256",
          "name": "amount",
          "type": "uint256"
        }
      ],
      "name": "burn",
      "outputs": [],
      "stateMutability": "nonpayable",
      "type": "function"
    },
    {
      "inputs": [],
      "name": "decimals",
      "outputs": [
        {
          "internalType": "uint8",
          "name": "",
          "type": "uint8"
        }
      ],
      "stateMutability": "view",
      "type": "function"
    },
    {
      "inputs": [
        {
          "internalType": "address",
          "name": "spender",
          "type": "address"
        },
        {
          "internalType": "uint256",
          "name": "subtractedValue",
          "type": "uint256"
        }
      ],
      "name": "decreaseAllowance",
      "outputs": [
        {
          "internalType": "bool",
          "name": "",
          "type": "bool"
        }
      ],
      "stateMutability": "nonpayable",
      "type": "function"
    },
    {
      "inputs": [
        {
          "internalType": "address",
          "name": "spender",
          "type": "address"
        },
        {
          "internalType": "uint256",
          "name": "addedValue",
          "type": "uint256"
        }
      ],
      "name": "increaseAllowance",
      "outputs": [
        {
          "internalType": "bool",
          "name": "",
          "type": "bool"
        }
      ],
      "stateMutability": "nonpayable",
      "type": "function"
    },
    {
      "inputs": [
        {
          "internalType": "address",
          "name": "account",
          "type": "address"
        },
        {
          "internalType": "uint256",
          "name": "amount",
          "type": "uint256"
        }
      ],
      "name": "mint",
      "outputs": [],
      "stateMutability": "nonpayable",
      "type": "function"
    },
    {
      "inputs": [],
      "name": "name",
      "outputs": [
        {
          "internalType": "string",
          "name": "",
          "type": "string"
        }
      ],
      "stateMutability": "view",
      "type": "function"
    },
    {
      "inputs": [],
      "name": "owner",
      "outputs": [
        {
          "internalType": "address",
          "name": "",
          "type": "address"
        }
      ],
      "stateMutability": "view",
      "type": "function"
    },
    {
      "inputs": [
        {
          "internalType": "uint256",
          "name": "id",
          "type": "uint256"
        }
      ],
      "name": "reject",
      "outputs": [],
      "stateMutability": "nonpayable",
      "type": "function"
    },
    {
      "inputs": [],
      "name": "renounceOwnership",
      "outputs": [],
      "stateMutability": "nonpayable",
      "type": "function"
    },
    {
      "inputs": [
        {
          "internalType": "uint256",
          "name": "",
          "type": "uint256"
        }
      ],
      "name": "requests",
      "outputs": [
        {
          "internalType": "address",
          "name": "from",
          "type": "address"
        },
        {
          "internalType": "uint256",
          "name": "amount",
          "type": "uint256"
        },
        {
          "internalType": "string",
          "name": "network",
          "type": "string"
        },
        {
          "internalType": "string",
          "name": "networkAddress",
          "type": "string"
        },
        {
          "internalType": "bool",
          "name": "processed",
          "type": "bool"
        },
        {
          "internalType": "bool",
          "name": "accepted",
          "type": "bool"
        }
      ],
      "stateMutability": "view",
      "type": "function"
    },
    {
      "inputs": [],
      "name": "requestsCount",
      "outputs": [
        {
          "internalType": "uint256",
          "name": "",
          "type": "uint256"
        }
      ],
      "stateMutability": "view",
      "type": "function"
    },
    {
      "inputs": [],
      "name": "symbol",
      "outputs": [
        {
          "internalType": "string",
          "name": "",
          "type": "string"
        }
      ],
      "stateMutability": "view",
      "type": "function"
    },
    {
      "inputs": [],
      "name": "totalSupply",
      "outputs": [
        {
          "internalType": "uint256",
          "name": "",
          "type": "uint256"
        }
      ],
      "stateMutability": "view",
      "type": "function"
    },
    {
      "inputs": [
        {
          "internalType": "address",
          "name": "to",
          "type": "address"
        },
        {
          "internalType": "uint256",
          "name": "amount",
          "type": "uint256"
        }
      ],
      "name": "transfer",
      "outputs": [
        {
          "internalType": "bool",
          "name": "",
          "type": "bool"
        }
      ],
      "stateMutability": "nonpayable",
      "type": "function"
    },
    {
      "inputs": [
        {
          "internalType": "address",
          "name": "from",
          "type": "address"
        },
        {
          "internalType": "address",
          "name": "to",
          "type": "address"
        },
        {
          "internalType": "uint256",
          "name": "amount",
          "type": "uint256"
        }
      ],
      "name": "transferFrom",
      "outputs": [
        {
          "internalType": "bool",
          "name": "",
          "type": "bool"
        }
      ],
      "stateMutability": "nonpayable",
      "type": "function"
    },
    {
      "inputs": [
        {
          "internalType": "address",
          "name": "newOwner",
          "type": "address"
        }
      ],
      "name": "transferOwnership",
      "outputs": [],
      "stateMutability": "nonpayable",
      "type": "function"
    },
    {
      "inputs": [
        {
          "internalType": "uint256",
          "name": "amount",
          "type": "uint256"
        },
        {
          "internalType": "string",
          "name": "network",
          "type": "string"
        },
        {
          "internalType": "string",
          "name": "networkAddress",
          "type": "string"
        }
      ],
      "name": "withdraw",
      "outputs": [],
      "stateMutability": "nonpayable",
      "type": "function"
    }
  ],
  "bytecode": "0x60806040523480156200001157600080fd5b5060405162001a2b38038062001a2b8339810160408190526200003491620002b4565b604080518082018252601281527114d8599948151c985b9cd9995c9cc81554d160721b602080830191825283518085019094526004845263131554d160e21b9084015281519192916200008a916003916200020e565b508051620000a09060049060208401906200020e565b505050620000bd620000b7620000d060201b60201c565b620000d4565b620000c9338262000126565b5062000332565b3390565b600580546001600160a01b038381166001600160a01b0319831681179093556040519116919082907f8be0079c531659141344cd1fd0a4f28419497f9722a3daafe3b4186f6b6457e090600090a35050565b6001600160a01b038216620001815760405162461bcd60e51b815260206004820152601f60248201527f45524332303a206d696e7420746f20746865207a65726f206164647265737300604482015260640160405180910390fd5b8060026000828254620001959190620002ce565b90915550506001600160a01b03821660009081526020819052604081208054839290620001c4908490620002ce565b90915550506040518181526001600160a01b038316906000907fddf252ad1be2c89b69c2b068fc378daa952ba7f163c4a11628f55a4df523b3ef9060200160405180910390a35050565b8280546200021c90620002f5565b90600052602060002090601f0160209004810192826200024057600085556200028b565b82601f106200025b57805160ff19168380011785556200028b565b828001600101855582156200028b579182015b828111156200028b5782518255916020019190600101906200026e565b50620002999291506200029d565b5090565b5b808211156200029957600081556001016200029e565b600060208284031215620002c757600080fd5b5051919050565b60008219821115620002f057634e487b7160e01b600052601160045260246000fd5b500190565b600181811c908216806200030a57607f821691505b602082108114156200032c57634e487b7160e01b600052602260045260246000fd5b50919050565b6116e980620003426000396000f3fe608060405234801561001057600080fd5b50600436106101375760003560e01c806381d12c58116100b8578063a457c2d71161007c578063a457c2d71461028b578063a9059cbb1461029e578063b8adaa11146102b1578063dd62ed3e146102c4578063f2fde38b146102d7578063fbfa4b7f146102ea57600080fd5b806381d12c581461021d5780638da5cb5b1461024257806395d89b411461025d5780639a493e75146102655780639dc29fac1461027857600080fd5b8063313ce567116100ff578063313ce567146101b757806339509351146101c657806340c10f19146101d957806370a08231146101ec578063715018a61461021557600080fd5b806306fdde031461013c578063095ea7b31461015a57806318160ddd1461017d57806319b05f491461018f57806323b872dd146101a4575b600080fd5b6101446102f2565b604051610151919061136f565b60405180910390f35b61016d6101683660046113a5565b610384565b6040519015158152602001610151565b6002545b604051908152602001610151565b6101a261019d3660046113cf565b61039c565b005b61016d6101b23660046113e8565b6105ea565b60405160128152602001610151565b61016d6101d43660046113a5565b61060e565b6101a26101e73660046113a5565b610630565b6101816101fa366004611424565b6001600160a01b031660009081526020819052604090205490565b6101a2610646565b61023061022b3660046113cf565b61065a565b6040516101519695949392919061143f565b6005546040516001600160a01b039091168152602001610151565b6101446107c3565b6101a2610273366004611536565b6107d2565b6101a26102863660046113a5565b610984565b61016d6102993660046113a5565b610996565b61016d6102ac3660046113a5565b610a11565b6101a26102bf3660046113cf565b610a1f565b6101816102d23660046115a3565b610ba7565b6101a26102e5366004611424565b610bd2565b600654610181565b606060038054610301906115d6565b80601f016020809104026020016040519081016040528092919081815260200182805461032d906115d6565b801561037a5780601f1061034f5761010080835404028352916020019161037a565b820191906000526020600020905b81548152906001019060200180831161035d57829003601f168201915b5050505050905090565b600033610392818585610c4b565b5060019392505050565b6103a4610d70565b60065481106103f45760405162461bcd60e51b81526020600482015260176024820152764c45524332303a206964206f7574206f662072616e676560481b60448201526064015b60405180910390fd5b6006818154811061040757610407611611565b9060005260206000209060050201600101546104586006838154811061042f5761042f611611565b600091825260208083206005909202909101546001600160a01b03168252819052604090205490565b10156104765760405162461bcd60e51b81526004016103eb90611627565b60016006828154811061048b5761048b611611565b906000526020600020906005020160040160006101000a81548160ff0219169083151502179055506001600682815481106104c8576104c8611611565b906000526020600020906005020160040160016101000a81548160ff02191690831515021790555061054e6006828154811061050657610506611611565b6000918252602090912060059091020154600680546001600160a01b03909216918490811061053757610537611611565b906000526020600020906005020160010154610dca565b6006818154811061056157610561611611565b6000918252602090912060059091020154600680546001600160a01b03909216917fac20b1ff5ea3a21c49e3062cbd56ba02dcc15a512d9ed38ea811bfadbdc06ce5918491829081106105b6576105b6611611565b9060005260206000209060050201600101546040516105df929190918252602082015260400190565b60405180910390a250565b6000336105f8858285610f10565b610603858585610f8a565b506001949350505050565b6000336103928185856106218383610ba7565b61062b9190611684565b610c4b565b610638610d70565b6106428282611158565b5050565b61064e610d70565b6106586000611237565b565b6006818154811061066a57600080fd5b60009182526020909120600590910201805460018201546002830180546001600160a01b0390931694509092916106a0906115d6565b80601f01602080910402602001604051908101604052809291908181526020018280546106cc906115d6565b80156107195780601f106106ee57610100808354040283529160200191610719565b820191906000526020600020905b8154815290600101906020018083116106fc57829003601f168201915b50505050509080600301805461072e906115d6565b80601f016020809104026020016040519081016040528092919081815260200182805461075a906115d6565b80156107a75780601f1061077c576101008083540402835291602001916107a7565b820191906000526020600020905b81548152906001019060200180831161078a57829003601f168201915b5050506004909301549192505060ff8082169161010090041686565b606060048054610301906115d6565b336000908152602081905260409020548311156108015760405162461bcd60e51b81526004016103eb90611627565b6040805160c08101825233815260208082018681529282018581526060830185905260006080840181905260a0840181905260068054600181018255915283517ff652222313e28459528d920b65115c16c04f3efc82aaedc97be59f3f377c0d3f600590920291820180546001600160a01b0319166001600160a01b0390921691909117815594517ff652222313e28459528d920b65115c16c04f3efc82aaedc97be59f3f377c0d40820155905180519394936108e7937ff652222313e28459528d920b65115c16c04f3efc82aaedc97be59f3f377c0d41909301929190910190611289565b5060608201518051610903916003840191602090910190611289565b5060808201516004909101805460a09093015115156101000261ff00199215159290921661ffff199093169290921717905560065433907f9da6493a92039daf47d1f2d7a782299c5994c6323eb1e972f69c432089ec52bf906109689060019061169c565b60408051918252602082018790520160405180910390a2505050565b61098c610d70565b6106428282610dca565b600033816109a48286610ba7565b905083811015610a045760405162461bcd60e51b815260206004820152602560248201527f45524332303a2064656372656173656420616c6c6f77616e63652062656c6f77604482015264207a65726f60d81b60648201526084016103eb565b6106038286868403610c4b565b600033610392818585610f8a565b610a27610d70565b6006548110610a725760405162461bcd60e51b81526020600482015260176024820152764c45524332303a206964206f7574206f662072616e676560481b60448201526064016103eb565b60068181548110610a8557610a85611611565b906000526020600020906005020160010154610aad6006838154811061042f5761042f611611565b1015610acb5760405162461bcd60e51b81526004016103eb90611627565b600160068281548110610ae057610ae0611611565b60009182526020822060059190910201600401805460ff1916921515929092179091556006805483908110610b1757610b17611611565b906000526020600020906005020160040160016101000a81548160ff02191690831515021790555060068181548110610b5257610b52611611565b6000918252602090912060059091020154600680546001600160a01b03909216917fa56247ad485b273a6f00eb3967b74e01c4e3c52229a4330b4b3ae5b6f9db6382918491829081106105b6576105b6611611565b6001600160a01b03918216600090815260016020908152604080832093909416825291909152205490565b610bda610d70565b6001600160a01b038116610c3f5760405162461bcd60e51b815260206004820152602660248201527f4f776e61626c653a206e6577206f776e657220697320746865207a65726f206160448201526564647265737360d01b60648201526084016103eb565b610c4881611237565b50565b6001600160a01b038316610cad5760405162461bcd60e51b8152602060048201526024808201527f45524332303a20617070726f76652066726f6d20746865207a65726f206164646044820152637265737360e01b60648201526084016103eb565b6001600160a01b038216610d0e5760405162461bcd60e51b815260206004820152602260248201527f45524332303a20617070726f766520746f20746865207a65726f206164647265604482015261737360f01b60648201526084016103eb565b6001600160a01b0383811660008181526001602090815260408083209487168084529482529182902085905590518481527f8c5be1e5ebec7d5bd14f71427d1e84f3dd0314c0f7b2291e5b200ac8c7c3b92591015b60405180910390a3505050565b6005546001600160a01b031633146106585760405162461bcd60e51b815260206004820181905260248201527f4f776e61626c653a2063616c6c6572206973206e6f7420746865206f776e657260448201526064016103eb565b6001600160a01b038216610e2a5760405162461bcd60e51b815260206004820152602160248201527f45524332303a206275726e2066726f6d20746865207a65726f206164647265736044820152607360f81b60648201526084016103eb565b6001600160a01b03821660009081526020819052604090205481811015610e9e5760405162461bcd60e51b815260206004820152602260248201527f45524332303a206275726e20616d6f756e7420657863656564732062616c616e604482015261636560f01b60648201526084016103eb565b6001600160a01b0383166000908152602081905260408120838303905560028054849290610ecd90849061169c565b90915550506040518281526000906001600160a01b038516907fddf252ad1be2c89b69c2b068fc378daa952ba7f163c4a11628f55a4df523b3ef90602001610d63565b6000610f1c8484610ba7565b90506000198114610f845781811015610f775760405162461bcd60e51b815260206004820152601d60248201527f45524332303a20696e73756666696369656e7420616c6c6f77616e636500000060448201526064016103eb565b610f848484848403610c4b565b50505050565b6001600160a01b038316610fee5760405162461bcd60e51b815260206004820152602560248201527f45524332303a207472616e736665722066726f6d20746865207a65726f206164604482015264647265737360d81b60648201526084016103eb565b6001600160a01b0382166110505760405162461bcd60e51b815260206004820152602360248201527f45524332303a207472616e7366657220746f20746865207a65726f206164647260448201526265737360e81b60648201526084016103eb565b6001600160a01b038316600090815260208190526040902054818110156110c85760405162461bcd60e51b815260206004820152602660248201527f45524332303a207472616e7366657220616d6f756e7420657863656564732062604482015265616c616e636560d01b60648201526084016103eb565b6001600160a01b038085166000908152602081905260408082208585039055918516815290812080548492906110ff908490611684565b92505081905550826001600160a01b0316846001600160a01b03167fddf252ad1be2c89b69c2b068fc378daa952ba7f163c4a11628f55a4df523b3ef8460405161114b91815260200190565b60405180910390a3610f84565b6001600160a01b0382166111ae5760405162461bcd60e51b815260206004820152601f60248201527f45524332303a206d696e7420746f20746865207a65726f20616464726573730060448201526064016103eb565b80600260008282546111c09190611684565b90915550506001600160a01b038216600090815260208190526040812080548392906111ed908490611684565b90915550506040518181526001600160a01b038316906000907fddf252ad1be2c89b69c2b068fc378daa952ba7f163c4a11628f55a4df523b3ef9060200160405180910390a35050565b600580546001600160a01b038381166001600160a01b0319831681179093556040519116919082907f8be0079c531659141344cd1fd0a4f28419497f9722a3daafe3b4186f6b6457e090600090a35050565b828054611295906115d6565b90600052602060002090601f0160209004810192826112b757600085556112fd565b82601f106112d057805160ff19168380011785556112fd565b828001600101855582156112fd579182015b828111156112fd5782518255916020019190600101906112e2565b5061130992915061130d565b5090565b5b80821115611309576000815560010161130e565b6000815180845260005b818110156113485760208185018101518683018201520161132c565b8181111561135a576000602083870101525b50601f01601f19169290920160200192915050565b6020815260006113826020830184611322565b9392505050565b80356001600160a01b03811681146113a057600080fd5b919050565b600080604083850312156113b857600080fd5b6113c183611389565b946020939093013593505050565b6000602082840312156113e157600080fd5b5035919050565b6000806000606084860312156113fd57600080fd5b61140684611389565b925061141460208501611389565b9150604084013590509250925092565b60006020828403121561143657600080fd5b61138282611389565b60018060a01b038716815285602082015260c06040820152600061146660c0830187611322565b82810360608401526114788187611322565b9415156080840152505090151560a090910152949350505050565b634e487b7160e01b600052604160045260246000fd5b600082601f8301126114ba57600080fd5b813567ffffffffffffffff808211156114d5576114d5611493565b604051601f8301601f19908116603f011681019082821181831017156114fd576114fd611493565b8160405283815286602085880101111561151657600080fd5b836020870160208301376000602085830101528094505050505092915050565b60008060006060848603121561154b57600080fd5b83359250602084013567ffffffffffffffff8082111561156a57600080fd5b611576878388016114a9565b9350604086013591508082111561158c57600080fd5b50611599868287016114a9565b9150509250925092565b600080604083850312156115b657600080fd5b6115bf83611389565b91506115cd60208401611389565b90509250929050565b600181811c908216806115ea57607f821691505b6020821081141561160b57634e487b7160e01b600052602260045260246000fd5b50919050565b634e487b7160e01b600052603260045260246000fd5b60208082526027908201527f4c45524332303a20776974686472617720616d6f756e7420657863656564732060408201526662616c616e636560c81b606082015260800190565b634e487b7160e01b600052601160045260246000fd5b600082198211156116975761169761166e565b500190565b6000828210156116ae576116ae61166e565b50039056fea26469706673582212201b2f55401de68bd9ab3a78e541bd1d119eac0b19c39944275b12d066cadf4d3164736f6c63430008090033",
  "linkReferences": {},
  "deployedLinkReferences": {}
}